:100000000C942A000C9447000C9447000C94470071
:100010000C9447000C9447000C9447000C94470044
:100020000C9447000C9447000C94CD030C94970358
:100030000C9447000C9441020C9447000C94470028
:100040000C9447000C9447000C9447000C94470014
:100050000C94470011241FBECFE5D8E0DEBFCDBF12
:1000600010E0A0E6B0E0E6E5FDE202C005900D92EA
:10007000A03BB107D9F713E0A0EBB0E001C01D929F
:10008000A43EB107E1F70E9453150C94A9160C94F5
:100090000000DF93CF9300D000D000D0CDB7DEB703
:1000A0009B838A836C835E834D8381E08983809107
:1000B000B0009091B1008436910508F058C02091AD
:1000C000B0003091B100C901880F991F880F991FA6
:1000D000880F991F821B930BFC01EB54FF4F8A8101
:1000E0009B81918380832091B0003091B100C90140
:1000F000880F991F880F991F880F991F821B930BD8
:10010000FC01EC54FF4F8C8180832091B000309132
:10011000B100C901880F991F880F991F880F991F77
:10012000821B930BFC01E954FF4F8A819B819183D1
:1001300080832091B0003091B100C901880F991FD0
:10014000880F991F880F991F821B930BFC01EE5497
:10015000FF4F8D819E81918380838091B00090912B
:10016000B10001969093B1008093B000198289810B
:1001700026960FB6F894DEBF0FBECDBFCF91DF91AC
:100180000895DF93CF93CDB7DEB727970FB6F894D6
:10019000DEBF0FBECDBF9A8389833FC029813A81DC
:1001A00089819A81AC014F5F5F4FC901880F991F08
:1001B000880F991F880F991F821B930B9C012E5447
:1001C0003F4FCA01880F991F880F991F880F991FE9
:1001D000841B950B8E549F4F3C832B839E838D8372
:1001E00087E08F83ED81FE8100808D819E81019665
:1001F0009E838D83EB81FC8100828B819C810196A3
:100200009C838B839F8191509F83EF81EE2351F7D5
:1002100089819A8101969A8389838091B000909117
:10022000B1009C012150304089819A818217930747
:1002300008F4B4CF8091B0009091B10001979093F1
:10024000B1008093B00027960FB6F894DEBF0FBEC2
:10025000CDBFCF91DF910895DF93CF9300D0CDB77D
:10026000DEB71A8219828AC029813A81C901880FB2
:10027000991F880F991F880F991F821B930BFC01F0
:10028000EB54FF4F80819181009709F051C0298183
:100290003A81C901880F991F880F991F880F991FEC
:1002A000821B930BFC01EE54FF4F0190F081E02D77
:1002B000099529813A81C901880F991F880F991FD3
:1002C000880F991F821B930BFC01EC54FF4F808118
:1002D000813071F489819A810E94C10089819A815B
:1002E000009731F189819A8101979A83898320C08F
:1002F00049815A8129813A81C901880F991F880F44
:10030000991F880F991F821B930BFC01E954FF4F23
:1003100020813181CA01880F991F880F991F880F8A
:10032000991F841B950BFC01EB54FF4F31832083F5
:1003300029813A81C901880F991F880F991F880F59
:10034000991F821B930BFC01EB54FF4F808191811D
:10035000AC0141505040C901880F991F880F991F67
:10036000880F991F821B930BFC01EB54FF4F5183A5
:10037000408389819A8101969A8389832091B00074
:100380003091B10089819A818217930708F46CCF6C
:100390000F900F90CF91DF910895DF93CF93CDB75A
:1003A000DEB70E94810288EF0E944E038CE291E04A
:1003B0000E945D030E94970285E00E94D302CF91C4
:1003C000DF910895DF93CF930F92CDB7DEB71982F7
:1003D000EBE2F0E080818D7F8083EBE2F0E08081D2
:1003E0008D7F8083EAE2F0E0808180618083EAE2B1
:1003F000F0E0808188608083EAE2F0E080818B7F9A
:10040000808389818068898389818F7B89838981C1
:100410008F7D898389818F7E89838981877F898385
:1004200089818460898389818260898389818E7FC3
:100430008983E0E4F0E089818083E0E4F0E01082E9
:10044000E9E2F0E083E38083EAE2F0E08081806823
:10045000808380E00F90CF91DF910895DF93CF9359
:1004600000D0CDB7DEB79A838983ECE2F0E08081DB
:10047000E981FA81808380E00F900F90CF91DF9126
:1004800008951F920F920FB60F9211242F933F934E
:100490004F935F936F937F938F939F93AF93BF938C
:1004A000EF93FF93DF93CF93CDB7DEB7E091E003F7
:1004B000F091E1030995CF91DF91FF91EF91BF9109
:1004C000AF919F918F917F916F915F914F913F91EC
:1004D0002F910F900FBE0F901F901895DF93CF9321
:1004E00000D0CDB7DEB79A83898389819A819093B2
:1004F000E1038093E00380E00F900F90CF91DF91B4
:100500000895DF93CF93CDB7DEB7A3E5B0E0E3E581
:10051000F0E0808187788C93A3E5B0E0E3E5F0E03C
:100520008081877B8C9380E0CF91DF910895DF936A
:10053000CF93CDB7DEB7A9E5B0E0E9E5F0E0808183
:1005400081608C9380E0CF91DF910895DF93CF930A
:10055000CDB7DEB7A9E5B0E0E9E5F0E080818260E3
:100560008C9380E0CF91DF910895DF93CF93CDB747
:10057000DEB7A9E5B0E0E9E5F0E080818E7F8C93FD
:1005800080E0CF91DF910895DF93CF93CDB7DEB7B1
:10059000A9E5B0E0E9E5F0E080818D7F8C9380E013
:1005A000CF91DF910895DF93CF9300D000D0CDB7E6
:1005B000DEB78A831982A3E5B0E0E3E5F0E080814D
:1005C000887F8C938A81282F30E03C832B838B811A
:1005D0009C818330910559F12B813C812430310578
:1005E0005CF48B819C818130910589F02B813C8169
:1005F00022303105A1F033C08B819C81843091057C
:10060000F1F02B813C812530310509F128C0A3E5AB
:10061000B0E0E3E5F0E0808181608C9322C0A3E547
:10062000B0E0E3E5F0E0808182608C931AC0A3E53E
:10063000B0E0E3E5F0E0808183608C9312C0A3E535
:10064000B0E0E3E5F0E0808184708C930AC0A3E51C
:10065000B0E0E3E5F0E0808185608C9302C081E04A
:10066000898389810F900F900F900F90CF91DF9128
:100670000895DF93CF93CDB7DEB7A3E5B0E0E3E510
:10068000F0E0808187788C93A3E5B0E0E3E5F0E0CB
:1006900080818C9380E0CF91DF910895DF93CF9399
:1006A0000F92CDB7DEB78983E2E5F0E089818083E0
:1006B00080E00F90CF91DF910895DF93CF9300D02A
:1006C0000F92CDB7DEB79B838A8319828A819B8183
:1006D000009739F08A819B8190936F0380936E031A
:1006E00002C082E0898389810F900F900F90CF9193
:1006F000DF910895DF93CF9300D00F92CDB7DEB78F
:100700009B838A8319828A819B81009739F08A8131
:100710009B81909371038093700302C082E0898370
:1007200089810F900F900F90CF91DF9108951F92C4
:100730000F920FB60F9211242F933F934F935F9315
:100740006F937F938F939F93AF93BF93EF93FF9399
:10075000DF93CF93CDB7DEB780916E0390916F0397
:10076000009741F088EF0E944E03E0916E03F091F4
:100770006F030995CF91DF91FF91EF91BF91AF91F9
:100780009F918F917F916F915F914F913F912F91A9
:100790000F900FBE0F901F9018951F920F920FB6DB
:1007A0000F9211242F933F934F935F936F937F93F7
:1007B0008F939F93AF93BF93EF93FF93DF93CF9369
:1007C000CDB7DEB78091700390917103009729F047
:1007D000E0917003F09171030995CF91DF91FF9142
:1007E000EF91BF91AF919F918F917F916F915F91A9
:1007F0004F913F912F910F900FBE0F901F90189522
:10080000DF93CF93CDB7DEB7EBE3F0E080EF8083EB
:10081000E8E3F0E080EF8083E5E3F0E01082E2E3DC
:10082000F0E01082EAE3F0E08FE08083E7E3F0E0BD
:100830008FE08083E4E3F0E08FEF8083E1E3F0E09A
:100840008FEF8083CF91DF910895DF93CF93CDB762
:10085000DEB72E970FB6F894DEBF0FBECDBF8B83E9
:100860006C838B818695869586958A838B8187702C
:1008700089838A81282F30E03E872D878D859E854C
:100880008130910509F4D6C02D853E852230310591
:100890002CF48D859E85009771F008C32D853E85CB
:1008A0002230310509F485C18D859E8583309105FF
:1008B00009F43EC2FBC28C81282F30E03C872B8795
:1008C0008B859C858230910509F43FC02B853C8542
:1008D0002330310534F48B859C858130910571F08E
:1008E000E5C22B853C852330310509F454C08B8546
:1008F0009C858430910509F476C0D8C2ABE3B0E0A2
:10090000EBE3F0E08081482F8981282F30E081E0FF
:1009100090E002C0880F991F2A95E2F78095842302
:100920008C93AAE3B0E0EAE3F0E08081482F89816C
:10093000282F30E081E090E0022E02C0880F991F3E
:100940000A94E2F7842B8C93B1C2ABE3B0E0EBE303
:10095000F0E08081482F8981282F30E081E090E00D
:1009600002C0880F991F2A95E2F7842B8C93AAE383
:10097000B0E0EAE3F0E08081482F8981282F30E061
:1009800081E090E0022E02C0880F991F0A94E2F7DE
:10099000842B8C938BC2ABE3B0E0EBE3F0E080817F
:1009A000482F8981282F30E081E090E002C0880F35
:1009B000991F2A95E2F7809584238C93AAE3B0E0EF
:1009C000EAE3F0E08081482F8981282F30E081E040
:1009D00090E0022E02C0880F991F0A94E2F78095DA
:1009E00084238C9363C2ABE3B0E0EBE3F0E080815F
:1009F000482F8981282F30E081E090E002C0880FE5
:100A0000991F2A95E2F7842B8C93AAE3B0E0EAE3DE
:100A1000F0E08081482F8981282F30E081E090E04C
:100A2000022E02C0880F991F0A94E2F78095842352
:100A30008C933CC28C81282F30E03A8729878985A6
:100A40009A858230910509F43FC029853A85233083
:100A5000310534F489859A858130910571F026C27B
:100A600029853A852330310509F454C089859A8552
:100A70008430910509F476C019C2ABE3B0E0EBE332
:100A8000F0E08081482F8981282F30E081E090E0DC
:100A900002C0880F991F2A95E2F7809584238C93D2
:100AA000AAE3B0E0EAE3F0E08081482F8981282FB3
:100AB00030E081E090E0022E02C0880F991F0A9476
:100AC000E2F7842B8C93F2C1ABE3B0E0EBE3F0E010
:100AD0008081482F8981282F30E081E090E002C09A
:100AE000880F991F2A95E2F7842B8C93AAE3B0E034
:100AF000EAE3F0E08081482F8981282F30E081E00F
:100B000090E0022E02C0880F991F0A94E2F7842B0E
:100B10008C93CCC1ABE3B0E0EBE3F0E08081482FF5
:100B20008981282F30E081E090E002C0880F991F72
:100B30002A95E2F7809584238C93AAE3B0E0EAE358
:100B4000F0E08081482F8981282F30E081E090E01B
:100B5000022E02C0880F991F0A94E2F78095842321
:100B60008C93A4C1ABE3B0E0EBE3F0E08081482FCD
:100B70008981282F30E081E090E002C0880F991F22
:100B80002A95E2F7842B8C93AAE3B0E0EAE3F0E045
:100B90008081482F8981282F30E081E090E0022E6B
:100BA00002C0880F991F0A94E2F7809584238C93E2
:100BB0007DC18C81282F30E038872F838F819885E5
:100BC0008230910509F43FC02F81388523303105EB
:100BD00034F48F8198858130910571F067C12F8140
:100BE00038852330310509F454C08F8198858430CD
:100BF000910509F476C05AC1ABE3B0E0EBE3F0E055
:100C00008081482F8981282F30E081E090E002C068
:100C1000880F991F2A95E2F7809584238C93AAE385
:100C2000B0E0EAE3F0E08081482F8981282F30E0AE
:100C300081E090E0022E02C0880F991F0A94E2F72B
:100C4000842B8C9333C1ABE3B0E0EBE3F0E0808125
:100C5000482F8981282F30E081E090E002C0880F82
:100C6000991F2A95E2F7842B8C93AAE3B0E0EAE37C
:100C7000F0E08081482F8981282F30E081E090E0EA
:100C8000022E02C0880F991F0A94E2F7842B8C93DE
:100C90000DC1ABE3B0E0EBE3F0E08081482F898148
:100CA000282F30E081E090E002C0880F991F2A953C
:100CB000E2F7809584238C93AAE3B0E0EAE3F0E0C6
:100CC0008081482F8981282F30E081E090E0022E3A
:100CD00002C0880F991F0A94E2F7809584238C93B1
:100CE000E5C0ABE3B0E0EBE3F0E08081482F898121
:100CF000282F30E081E090E002C0880F991F2A95EC
:100D0000E2F7842B8C93AAE3B0E0EAE3F0E0808181
:100D1000482F8981282F30E081E090E0022E02C028
:100D2000880F991F0A94E2F7809584238C93BEC0A4
:100D30008C81282F30E03E832D838D819E818230EF
:100D4000910509F43FC02D813E812330310534F4F3
:100D50008D819E818130910571F0A8C02D813E81E9
:100D60002330310509F454C08D819E818430910572
:100D700009F476C09BC0ABE3B0E0EBE3F0E0808128
:100D8000482F8981282F30E081E090E002C0880F51
:100D9000991F2A95E2F7809584238C93AAE3B0E00B
:100DA000EAE3F0E08081482F8981282F30E081E05C
:100DB00090E0022E02C0880F991F0A94E2F7842B5C
:100DC0008C9374C0ABE3B0E0EBE3F0E08081482F9C
:100DD0008981282F30E081E090E002C0880F991FC0
:100DE0002A95E2F7842B8C93AAE3B0E0EAE3F0E0E3
:100DF0008081482F8981282F30E081E090E0022E09
:100E000002C0880F991F0A94E2F7842B8C934EC07E
:100E1000ABE3B0E0EBE3F0E08081482F8981282F3D
:100E200030E081E090E002C0880F991F2A95E2F738
:100E3000809584238C93AAE3B0E0EAE3F0E080811C
:100E4000482F8981282F30E081E090E0022E02C0F7
:100E5000880F991F0A94E2F7809584238C9326C00B
:100E6000ABE3B0E0EBE3F0E08081482F8981282FED
:100E700030E081E090E002C0880F991F2A95E2F7E8
:100E8000842B8C93AAE3B0E0EAE3F0E08081482F62
:100E90008981282F30E081E090E0022E02C0880F87
:100EA000991F0A94E2F7809584238C932E960FB6AF
:100EB000F894DEBF0FBECDBFCF91DF910895DF93D1
:100EC000CF9300D000D000D0CDB7DEB78B836C833A
:100ED0008B818695869586958A838B818770898399
:100EE0008A81282F30E03E832D838D819E81813041
:100EF000910509F443C02D813E81223031052CF447
:100F00008D819E81009771F0BCC02D813E81223081
:100F1000310509F45FC08D819E818330910509F40C
:100F200085C0AFC08C818130A1F4AAE3B0E0EAE3D0
:100F3000F0E08081482F8981282F30E081E090E027
:100F4000022E02C0880F991F0A94E2F7842B8C931B
:100F500098C0AAE3B0E0EAE3F0E08081482F8981FD
:100F6000282F30E081E090E0022E02C0880F991F08
:100F70000A94E2F7809584238C9383C08C8181301E
:100F8000A1F4A7E3B0E0E7E3F0E08081482F898196
:100F9000282F30E081E090E0022E02C0880F991FD8
:100FA0000A94E2F7842B8C936CC0A7E3B0E0E7E3EC
:100FB000F0E08081482F8981282F30E081E090E0A7
:100FC000022E02C0880F991F0A94E2F780958423AD
:100FD0008C9357C08C818130A1F4A4E3B0E0E4E3AA
:100FE000F0E08081482F8981282F30E081E090E077
:100FF000022E02C0880F991F0A94E2F7842B8C936B
:1010000040C0A4E3B0E0E4E3F0E08081482F8981B0
:10101000282F30E081E090E0022E02C0880F991F57
:101020000A94E2F7809584238C932BC08C818130C5
:10103000A1F4A1E3B0E0E1E3F0E08081482F8981F1
:10104000282F30E081E090E0022E02C0880F991F27
:101050000A94E2F7842B8C9314C0A1E3B0E0E1E39F
:10106000F0E08081482F8981282F30E081E090E0F6
:10107000022E02C0880F991F0A94E2F780958423FC
:101080008C9326960FB6F894DEBF0FBECDBFCF91DE
:10109000DF910895DF93CF9300D000D000D0CDB77B
:1010A000DEB78B836C838B818695869586958A8344
:1010B0008B81877089838A81282F30E03E832D833E
:1010C0008D819E818130910509F443C02D813E813F
:1010D000223031052CF48D819E81009771F0BCC0C7
:1010E0002D813E812230310509F45FC08D819E81C2
:1010F0008330910509F485C0AFC08C818130A1F4A3
:10110000ABE3B0E0EBE3F0E08081482F8981282F4A
:1011100030E081E090E0022E02C0880F991F0A940F
:10112000E2F7842B8C9398C0ABE3B0E0EBE3F0E004
:101130008081482F8981282F30E081E090E0022EC5
:1011400002C0880F991F0A94E2F7809584238C933C
:1011500083C08C818130A1F4A8E3B0E0E8E3F0E043
:101160008081482F8981282F30E081E090E0022E95
:1011700002C0880F991F0A94E2F7842B8C936CC0ED
:10118000A8E3B0E0E8E3F0E08081482F8981282FD0
:1011900030E081E090E0022E02C0880F991F0A948F
:1011A000E2F7809584238C9357C08C818130A1F421
:1011B000A5E3B0E0E5E3F0E08081482F8981282FA6
:1011C00030E081E090E0022E02C0880F991F0A945F
:1011D000E2F7842B8C9340C0A5E3B0E0E5E3F0E0B8
:1011E0008081482F8981282F30E081E090E0022E15
:1011F00002C0880F991F0A94E2F7809584238C938C
:101200002BC08C818130A1F4A2E3B0E0E2E3F0E0F6
:101210008081482F8981282F30E081E090E0022EE4
:1012200002C0880F991F0A94E2F7842B8C9314C094
:10123000A2E3B0E0E2E3F0E08081482F8981282F2B
:1012400030E081E090E0022E02C0880F991F0A94DE
:10125000E2F7809584238C9326960FB6F894DEBF30
:101260000FBECDBFCF91DF910895DF93CF9300D014
:1012700000D000D0CDB7DEB78C838C818695869563
:1012800086958A838C81877089838A81282F30E0B4
:101290003E832D834D815E814130510541F18D8129
:1012A0009E818230910534F42D813E8121153105D6
:1012B00061F052C04D815E814230510551F18D8106
:1012C0009E8183309105B9F147C0E9E3F0E0808168
:1012D000282F30E08981882F90E0A90102C0559520
:1012E00047958A95E2F7CA0181708B8335C0E6E3A2
:1012F000F0E08081282F30E08981882F90E0A901DB
:1013000002C0559547958A95E2F7CA0181708B8393
:1013100023C0E3E3F0E08081282F30E08981882F2B
:1013200090E0A90102C0559547958A95E2F7CA0158
:1013300081708B8311C0E0E3F0E08081282F30E0E2
:101340008981882F90E0A90102C0559547958A951B
:10135000E2F7CA0181708B838B8126960FB6F894D1
:10136000DEBF0FBECDBFCF91DF910895DF93CF9346
:1013700000D000D00F92CDB7DEB78B838B818695DE
:10138000869586958A838B81877089838A81282FA9
:1013900030E03D832C838C819D818130910549F122
:1013A0002C813D81223031052CF48C819D81009768
:1013B00061F05AC02C813D812230310571F18C8160
:1013C0009D8183309105E9F14FC0ABE3B0E0EBE3E1
:1013D000F0E08081482F8981282F30E081E090E083
:1013E000022E02C0880F991F0A94E2F784278C937B
:1013F0003BC0A8E3B0E0E8E3F0E08081482F8981BA
:10140000282F30E081E090E0022E02C0880F991F63
:101410000A94E2F784278C9327C0A5E3B0E0E5E3C4
:10142000F0E08081482F8981282F30E081E090E032
:10143000022E02C0880F991F0A94E2F784278C932A
:1014400013C0A2E3B0E0E2E3F0E08081482F89819D
:10145000282F30E081E090E0022E02C0880F991F13
:101460000A94E2F784278C930F900F900F900F90BF
:101470000F90CF91DF910895DF93CF93CDB7DEB773
:101480000E94E20180E0CF91DF910895DF93CF9336
:10149000CDB7DEB782E793E00E942E0280E0CF91C5
:1014A000DF910895DF93CF9300D0CDB7DEB79A8355
:1014B000898380917203E981FA818083109272039B
:1014C00080E00F900F90CF91DF910895DF93CF933D
:1014D00000D00F92CDB7DEB789838981282F30E005
:1014E0003B832A838A819B818430910509F455C00E
:1014F0002A813B8125303105DCF48A819B81813052
:10150000910509F43BC02A813B81223031052CF43E
:101510008A819B81009769F15DC02A813B812230DD
:10152000310589F18A819B818330910589F152C00F
:101530002A813B812730310509F43EC08A819B8195
:10154000883091055CF42A813B812530310551F1C9
:101550008A819B818630910551F13CC02A813B8173
:101560002830310571F18A819B818930910571F1B3
:1015700031C080E061E00E944A082CC081E061E057
:101580000E944A0827C082E061E00E944A0822C007
:1015900083E061E00E944A081DC084E061E00E948F
:1015A0004A0818C085E061E00E944A0813C086E03E
:1015B00061E00E944A080EC087E061E00E944A088C
:1015C00009C088E061E00E944A0804C089E061E047
:1015D0000E944A080F900F900F90CF91DF910895CD
:1015E000DF93CF9300D00F92CDB7DEB78983898187
:1015F000282F30E03B832A838A819B8184309105A8
:1016000009F455C02A813B8125303105DCF48A81FB
:101610009B818130910509F43BC02A813B812230B6
:1016200031052CF48A819B81009769F15DC02A8184
:101630003B812230310589F18A819B81833091057C
:1016400089F152C02A813B812730310509F43EC01F
:101650008A819B81883091055CF42A813B81253009
:10166000310551F18A819B818630910551F13CC051
:101670002A813B812830310571F18A819B81893033
:10168000910571F131C080E060E00E944A082CC0F1
:1016900081E060E00E944A0827C082E060E00E948A
:1016A0004A0822C083E060E00E944A081DC084E02E
:1016B00060E00E944A0818C085E060E00E944A0885
:1016C00013C086E060E00E944A080EC087E060E038
:1016D0000E944A0809C088E060E00E944A0804C0ED
:1016E00089E060E00E944A080F900F900F90CF9120
:1016F000DF910895DF93CF9300D00F92CDB7DEB77F
:1017000089838981282F30E03B832A838A819B81CA
:101710008430910509F44FC02A813B812530310581
:10172000D4F48A819B8181309105C9F12A813B8162
:10173000223031052CF48A819B81009761F152C0DF
:101740002A813B812230310571F18A819B8183306E
:10175000910569F147C02A813B8127303105B9F1F4
:101760008A819B81883091055CF42A813B812530F8
:10177000310529F18A819B818630910521F132C0A2
:101780002A813B812830310531F18A819B81893062
:10179000910529F127C080E00E94B60923C081E0AD
:1017A0000E94B6091FC082E00E94B6091BC083E0F8
:1017B0000E94B60917C084E00E94B60913C085E0F4
:1017C0000E94B6090FC086E00E94B6090BC087E0F0
:1017D0000E94B60907C088E00E94B60903C089E0EC
:1017E0000E94B6090F900F900F90CF91DF9108954E
:1017F000DF93CF9300D0CDB7DEB783E08A83198221
:101800000DC08981882F90E0FC01E357FF4F808154
:1018100060E00E944A0889818F5F898389818A30CC
:1018200080F32FE13CE082E090E060E0A9010E94BB
:1018300049008A810F900F90CF91DF910895DF9337
:10184000CF93CDB7DEB780917603882319F00E943D
:10185000B50C02C00E942F0CCF91DF910895DF9349
:10186000CF9300D00F92CDB7DEB780917303282FAE
:1018700030E03B832A838A819B818230910509F481
:1018800042C02A813B812330310554F48A819B81F7
:10189000009791F02A813B812130310531F15FC001
:1018A0008A819B8183309105E1F12A813B8124303B
:1018B000310509F44EC053C0809177038E3179F41D
:1018C00088E360E00E94F50C89838981882309F010
:1018D00046C081E0809373031092770340C08091EB
:1018E00077038F5F809377033AC08CE060E00E94BB
:1018F000F50C89838981882391F582E080937303B5
:10190000109277032CC081E060E00E94F50C89837F
:101910008981882321F583E08093730310927703F4
:101920001EC080917703813071F486E060E00E94F0
:10193000F50C89838981882391F484E08093730373
:10194000109277030CC0809177038F5F80937703A9
:1019500006C085E08093730381E0809376030F9047
:101960000F900F90CF91DF910895DF93CF930F9257
:10197000CDB7DEB780917403813021F58091750376
:10198000882F90E0FC01E758FC4F80818823A9F064
:1019900080917503882F90E0FC01E758FC4F80810F
:1019A00061E00E94F50C898389818823D1F48091BC
:1019B00075038F5F8093750314C0109275031092A6
:1019C00074030FC080917403823059F480917903BD
:1019D00060E00E94F50C89838981882311F41092BC
:1019E00074030F90CF91DF910895DF93CF9300D0D0
:1019F0000F92CDB7DEB78A836B831982809178030B
:101A0000882309F0B4C08B81882331F480918D0044
:101A100060E00E944A0805C080918D0061E00E944C
:101A20004A0880918E0061E00E944A088A818823DA
:101A300034F480918F0061E00E944A0805C08091D3
:101A40008F0060E00E944A088A818295869586957B
:101A50008370882F90E081709070882331F080919E
:101A6000900061E00E944A0805C08091900060E00B
:101A70000E944A088A81829586958770882F90E017
:101A800081709070882331F08091910061E00E9414
:101A90004A0805C08091910060E00E944A088A814E
:101AA00082958F70882F90E081709070882331F03C
:101AB0008091920061E00E944A0805C080919200E6
:101AC00060E00E944A088A81869586958695882FCF
:101AD00090E081709070882331F08091930061E0F4
:101AE0000E944A0805C08091930060E00E944A0865
:101AF0008A8186958695882F90E0817090708823E2
:101B000031F08091940061E00E944A0805C0809104
:101B1000940060E00E944A088A818695882F90E0B0
:101B200081709070882331F08091950061E00E946F
:101B30004A0805C08091950060E00E944A088A81A9
:101B4000882F90E081709070882331F0809196000A
:101B500061E00E944A0805C08091960060E00E9402
:101B60004A0881E08093780383E0898318C08091DC
:101B70007803813069F480918E0060E00E944A0809
:101B800084E08983809178038F5F8093780307C016
:101B900080917803823019F4109278031982898138
:101BA0000F900F900F90CF91DF910895DF93CF9317
:101BB0000F92CDB7DEB783E08983809176038823C7
:101BC00071F080917403882339F482E08093740368
:101BD00081E08093790305C084E0898302C081E0BD
:101BE000898389810F90CF91DF910895DF93CF93FF
:101BF00000D000D0CDB7DEB79C838B8383E08A838F
:101C0000198280917603882391F18091740388234F
:101C100059F581E080937403198213C08981482F9C
:101C200050E08981282F30E08B819C81FC01E20FFC
:101C3000F31F8081FA01E758FC4F808389818F5F11
:101C400089838981282F30E08B819C81FC01E20F00
:101C5000F31F8081882311F78981882F90E0FC0190
:101C6000E758FC4F108205C084E08A8302C081E0FF
:101C70008A838A810F900F900F900F90CF91DF9100
:101C80000895DF93CF9300D000D0CDB7DEB78B831C
:101C90006C8383E08A8319828C81882319F08C817C
:101CA0008130D1F480917603882399F08091740378
:101CB000882361F48C81809374038981882F90E05C
:101CC000FC01E758FC4F8B81808308C084E08A8345
:101CD00005C081E08A8302C081E08A838A810F90F7
:101CE0000F900F900F90CF91DF910895DF93CF93D6
:101CF00000D0CDB7DEB71A82198252C08981882FF1
:101D000090E0FC01E955FF4F808161E00E944A08A4
:101D10008981282F30E0C901880F991F820F931FF6
:101D2000880F991F880F991FFC01E356FC4F81E033
:101D300080838981282F30E0C901880F991F820F85
:101D4000931F0196880F991F880F991FFC01E45675
:101D5000FC4F81E080838981282F30E0C901880F02
:101D6000991F820F931F880F991F880F991FFC01DD
:101D7000ED55FC4F81E080838981282F30E0C90137
:101D8000880F991F820F931F880F991F880F991F23
:101D9000FC01EA55FC4F81E0808389818F5F898354
:101DA0008981843008F4AACF8A81882379F42CEEC3
:101DB0003EE08AE090E060E0A9010E9449008A8349
:101DC0008A81882319F481E080939A038A810F9095
:101DD0000F90CF91DF910895DF93CF9300D000D083
:101DE000CDB7DEB780919A03882309F479C41A82AB
:101DF00019824DC41A828091A70061E00E944A08AE
:101E00008091A80061E00E944A088091A90061E0E9
:101E10000E944A088091AA0061E00E944A088981D4
:101E2000882F90E083709070FC01E955FF4F80810E
:101E300060E00E944A088981882F90E0019624E0A2
:101E400030E0B9010E948216FC01E955FF4F808104
:101E500061E00E944A088981882F90E0029624E080
:101E600030E0B9010E948216FC01E955FF4F8081E4
:101E700061E00E944A088981882F90E0039624E05F
:101E800030E0B9010E948216FC01E955FF4F8081C4
:101E900061E00E944A088091AB000E943509982FAA
:101EA0008A81892B8A838091AC000E943509882F12
:101EB00090E0880F991F982F8A81892B8A838091BF
:101EC000AD000E943509882F90E0880F991F880F78
:101ED000991F982F8A81892B8A838091AE000E9456
:101EE0003509882F90E0880F991F880F991F880F58
:101EF000991F982F8A81892B8A838A818F3009F4D0
:101F0000C3C38A81282F30E03C832B838B819C8143
:101F10008B30910509F4EBC12B813C812C303105CC
:101F20003CF48B819C818730910509F4C7C2B3C30F
:101F30002B813C812D30310509F4F1C08B819C81CE
:101F40008E30910509F0A7C38981282F30E0C9019F
:101F5000880F991F820F931F880F991F880F991F51
:101F6000FC01E456FC4F10828981282F30E0C90122
:101F7000880F991F820F931F880F991F880F991F31
:101F8000FC01E456FC4F40818981282F30E0C901D3
:101F9000880F991F820F931F880F991F880F991F11
:101FA000FC01E356FC4F8081481709F053C089813A
:101FB000282F30E0C901880F991F820F931F880FC7
:101FC000991F0196880F991FFC01E456FC4F8081F0
:101FD000482F4F5FC901880F991F820F931F880FE9
:101FE000991F0196880F991FFC01E456FC4F40830E
:101FF0008981282F30E0C901880F991F820F931F14
:10200000880F991F0196880F991FFC01E456FC4F19
:102010008081853081F58981882F90E0880F991F14
:10202000880F991FFC01E956FF4F808180938B0038
:102030008981282F30E0C901880F991F820F931FD3
:10204000880F991F0196880F991FFC01E456FC4FD9
:10205000108211C08981282F30E0C901880F991F93
:10206000820F931F880F991F0196880F991FFC01FB
:10207000E456FC4F10828981482F50E08981282F37
:1020800030E0C901880F991F820F931F880F991F95
:10209000880F991FFC01E456FC4F2081CA01880F6C
:1020A000991F840F951F880F991F880F991FFC0196
:1020B000E356FC4F20838981282F30E0C901880F27
:1020C000991F820F931F880F991F880F991FFC017A
:1020D000E156FC4F81E080838981282F30E0C901DF
:1020E000880F991F820F931F880F991F880F991FC0
:1020F000FC01EE55FC4F81E080838981282F30E080
:10210000C901880F991F820F931F880F991F880F8D
:10211000991FFC01EB55FC4F81E08083BCC2898193
:10212000282F30E0C901880F991F820F931F880F55
:10213000991F880F991FFC01E156FC4F108289817D
:10214000282F30E0C901880F991F820F931F880F35
:10215000991F880F991FFC01E156FC4F408189812E
:10216000282F30E0C901880F991F820F931F019615
:10217000880F991F880F991FFC01E456FC4F80813E
:10218000481709F04FC08981282F30E0C901880F16
:10219000991F820F931F880F991F880F991FFC01A9
:1021A000EF55FC4F8081482F4F5FC901880F991F61
:1021B000820F931F880F991F880F991FFC01EF55FD
:1021C000FC4F40838981282F30E0C901880F991F77
:1021D000820F931F880F991F880F991FFC01EF55DD
:1021E000FC4F8081853071F58981882F90E0880FC0
:1021F000991F880F991FFC01E856FF4F808180933B
:102200008B008981282F30E0C901880F991F820F28
:10221000931F880F991F880F991FFC01EF55FC4FE2
:10222000108210C08981282F30E0C901880F991FC2
:10223000820F931F880F991F880F991FFC01EF557C
:10224000FC4F10828981482F50E08981282F30E08F
:10225000C901880F991F820F931F880F991F880F3C
:10226000991FFC01E156FC4F2081CA01880F991F7C
:10227000840F951F0196880F991F880F991FFC01E5
:10228000E456FC4F20838981282F30E0C901880F54
:10229000991F820F931F880F991F880F991FFC01A8
:1022A000E456FC4F81E080838981282F30E0C9010A
:1022B000880F991F820F931F880F991F880F991FEE
:1022C000FC01EE55FC4F81E080838981282F30E0AE
:1022D000C901880F991F820F931F880F991F880FBC
:1022E000991FFC01EB55FC4F81E08083D4C18981AB
:1022F000282F30E0C901880F991F820F931F880F84
:10230000991F880F991FFC01EE55FC4F108289819F
:10231000282F30E0C901880F991F820F931F880F63
:10232000991F880F991FFC01EE55FC4F4081898150
:10233000282F30E0C901880F991F820F931F880F43
:10234000991F880F991FFC01ED55FC4F808148179C
:1023500009F050C08981282F30E0C901880F991FEA
:10236000820F931F880F991F880F991FFC01EC554E
:10237000FC4F8081482F4F5FC901880F991F820F42
:10238000931F880F991F880F991FFC01EC55FC4F74
:1023900040838981282F30E0C901880F991F820F5F
:1023A000931F880F991F880F991FFC01EC55FC4F54
:1023B0008081853079F58981882F90E0880F991F79
:1023C0000196880F991FFC01E956FF4F8081809389
:1023D0008B008981282F30E0C901880F991F820F57
:1023E000931F880F991F880F991FFC01EC55FC4F14
:1023F000108210C08981282F30E0C901880F991FF1
:10240000820F931F880F991F880F991FFC01EC55AD
:10241000FC4F10828981482F50E08981282F30E0BD
:10242000C901880F991F820F931F880F991F880F6A
:10243000991FFC01EE55FC4F2081CA01880F991F9E
:10244000840F951F880F991F880F991FFC01ED5568
:10245000FC4F20838981282F30E0C901880F991F04
:10246000820F931F880F991F880F991FFC01E15657
:10247000FC4F81E080838981282F30E0C901880FDB
:10248000991F820F931F880F991F880F991FFC01B6
:10249000E456FC4F81E080838981282F30E0C90118
:1024A000880F991F820F931F880F991F880F991FFC
:1024B000FC01EB55FC4F81E08083EDC08981282F22
:1024C00030E0C901880F991F820F931F880F991F51
:1024D000880F991FFC01EB55FC4F10828981282F32
:1024E00030E0C901880F991F820F931F880F991F31
:1024F000880F991FFC01EB55FC4F40818981282FE3
:1025000030E0C901880F991F820F931F880F991F10
:10251000880F991FFC01EA55FC4F8081481709F08C
:102520004FC08981282F30E0C901880F991F820F81
:10253000931F880F991F880F991FFC01E955FC4FC5
:102540008081482F4F5FC901880F991F820F931F09
:10255000880F991F880F991FFC01E955FC4F408394
:102560008981282F30E0C901880F991F820F931F9E
:10257000880F991F880F991FFC01E955FC4F808136
:10258000853071F58981882F90E0880F991F880F19
:10259000991FFC01E656FF4F808180938B00898153
:1025A000282F30E0C901880F991F820F931F880FD1
:1025B000991F880F991FFC01E955FC4F108210C02C
:1025C0008981282F30E0C901880F991F820F931F3E
:1025D000880F991F880F991FFC01E955FC4F108245
:1025E0008981482F50E08981282F30E0C901880F68
:1025F000991F820F931F880F991F880F991FFC0145
:10260000EB55FC4F2081CA01880F991F840F951F3D
:10261000880F991F880F991FFC01EA55FC4F2083F2
:102620008981282F30E0C901880F991F820F931FDD
:10263000880F991F880F991FFC01E156FC4F81E01C
:1026400080838981282F30E0C901880F991F820F6C
:10265000931F880F991F880F991FFC01EE55FC4F9F
:1026600081E080838981282F30E0C901880F991F7C
:10267000820F931F880F991F880F991FFC01E45642
:10268000FC4F81E0808307C089818F5F89838981C6
:10269000843008F4AFCB8981843071F480919B033E
:1026A0008F5F80939B0380919B03853029F4109268
:1026B0009B038FEF80938B008091A70061E00E94C5
:1026C0004A088091A80061E00E944A088091A90010
:1026D00061E00E944A088091AA0061E00E944A08D5
:1026E0000F900F900F900F90CF91DF910895DF938F
:1026F000CF9300D00F92CDB7DEB79B838A83198228
:1027000080919A03882331F080918B00EA81FB81CC
:10271000808302C081E0898389810F900F900F90A0
:10272000CF91DF910895DF93CF9300D000D0CDB744
:10273000DEB78A8319828A81282F30E03C832B837D
:102740008B819C8182309105E1F12B813C8123308A
:10275000310554F48B819C81009789F02B813C8159
:1027600021303105B1F03DC08B819C8183309105D2
:10277000D1F02B813C812430310581F132C0809130
:10278000CC03853B80F58091CC038F5F8093CC0395
:102790002AC08091CC03882331F18091CC038150F1
:1027A0008093CC0320C08091CC038A3A30F480918E
:1027B000CC03865F8093CC0316C084EB8093CC035C
:1027C00012C08091CC038B3030F08091CC038A50C2
:1027D0008093CC0308C01092CC0305C01092CC03A8
:1027E00002C081E0898389810F900F900F900F9034
:1027F000CF91DF910895DF93CF9300D00F92CDB7A3
:10280000DEB79B838A8319828A819B81009719F4A2
:1028100081E0898305C08091CC03EA81FB818083BC
:1028200089810F900F900F90CF91DF910895DF93E2
:10283000CF93CDB7DEB72EE234E182E390E060E0E3
:10284000A9010E94490029EC34E184EF91E060E0A5
:10285000A9010E944900CF91DF910895DF93CF93A2
:1028600000D0CDB7DEB78FEC93E00E947713809154
:10287000CF03282F30E03A83298389819A818533D9
:10288000910509F452C029813A8126333105DCF4DF
:1028900089819A818233910589F129813A81233393
:1028A000310534F489819A818133910519F161C030
:1028B00029813A812333310529F189819A81843331
:1028C000910579F156C029813A812733310509F400
:1028D00042C089819A81873391055CF129813A81CF
:1028E0002833310509F43CC089819A8189339105E7
:1028F000E1F13FC080E00E94931346C081E00E9456
:10290000931342C08091CD038F5F8093CD0380915C
:10291000CD03883CC9F51092CD0381E00E94F914E3
:1029200033C083E00E9493132FC082E00E94931370
:102930002BC080E00E94F9148091CD038F5F8093BB
:10294000CD038091CD03883CF9F41092CD0380E053
:102950000E94F91419C081E061E00E940C1514C0B6
:1029600081E060E00E940C150FC084E00E94931388
:102970000BC08FEF0E94931380E061E00E940C1562
:1029800080E060E00E940C150F900F90CF91DF91D6
:102990000895DF93CF93CDB7DEB780ED93E00E942B
:1029A000520A8091D003882329F48091CE038F5F4F
:1029B0008093CE03CF91DF910895DF93CF9300D022
:1029C0000F92CDB7DEB79B838A8319828A819B8160
:1029D000009719F481E0898305C08091D103EA81D1
:1029E000FB81808389810F900F900F90CF91DF91B1
:1029F0000895DF93CF9300D0CDB7DEB78A831982D5
:102A00008A81823018F08A818093D10389810F9066
:102A10000F90CF91DF910895DF93CF9300D00F9265
:102A2000CDB7DEB78A836B8319828B81823018F42D
:102A30008A81823018F081E0898308C08A81882FDA
:102A400090E0FC01EE51FC4F8B81808389810F90D7
:102A50000F900F90CF91DF910895DF93CF9300D027
:102A600000D0CDB7DEB78A837C836B8319828B81DC
:102A70009C81009719F08A81823018F081E0898367
:102A80000AC08A81882F90E0FC01EE51FC4F8081C2
:102A9000EB81FC81808389810F900F900F900F90C4
:102AA000CF91DF910895DF93CF93CDB7DEB7EFE5F8
:102AB000F0E08081806880830E9400040E94CD0144
:102AC0000E94F80B0E94760E0E943C0A0E94171486
:102AD0000E946B15FDCFDF93CF93CDB7DEB782EDAC
:102AE00093E00E94DD148091D203813039F40E947A
:102AF00085150E94D7150E940B1604C00E94D60DA2
:102B00008330E1F7CF91DF910895DF93CF93CDB775
:102B1000DEB78CE890E00E94FB130E94D60D833054
:102B2000E1F780E690E00E94F60D8330D1F78091C6
:102B30008C0026ED33E0B9010E94121680918C00C2
:102B4000843658F480918C008B3038F083E690E026
:102B50000E94F60D8330D1F70AC080918C008A3034
:102B600030F485E690E00E94F60D8330D1F786EDD3
:102B700093E00E94F60D8330D1F780918C00873965
:102B800050F088E690E00E94F60D8330D1F781E0A6
:102B90000E94660A09C08AE690E00E94F60D833022
:102BA000D1F781E00E94F00ACF91DF910895DF9381
:102BB000CF93CDB7DEB723ED33E080E0B9010E94BB
:102BC0002D1524ED33E081E0B9010E942D158CE62E
:102BD00090E00E94F60D8330D1F78091D3038130CD
:102BE00021F08091D403813051F487E790E00E9476
:102BF000F60D8330D1F780E00E94660A09C081E8B3
:102C000090E00E94F60D8330D1F780E00E94F00A38
:102C1000CF91DF910895DF93CF93CDB7DEB7CF91FA
:102C2000DF910895DF93CF93CDB7DEB72B970FB623
:102C3000F894DEBF0FBECDBF89877B876A871C8271
:102C40001B821A82198289859AE0692F0E94761662
:102C5000892F805D8B838C81282F30E0CE010596F3
:102C6000FC01E20FF31F8B81808389859AE0692F35
:102C70000E94761689878C818F5F8C838985882353
:102C800011F78C8181508A8319821AC08981282F7B
:102C900030E08A859B85DC01A20FB31F8A81282F33
:102CA000332727FD3095CE010596FC01E20FF31F77
:102CB00080818C938A8181508A8389818F5F898307
:102CC00099818C81981710F38981282F30E08A85AB
:102CD0009B85FC01E20FF31F10822B960FB6F89430
:102CE000DEBF0FBECDBFCF91DF910895991B79E074
:102CF00004C0991F961708F0961B881F7A95C9F78C
:102D00008095089597FB092E07260AD077FD04D0F9
:102D10000CD006D000201AF4709561957F4F08956D
:102D2000F6F7909581959F4F0895AA1BBB1B51E123
:102D300007C0AA1FBB1FA617B70710F0A61BB70B2B
:102D4000881F991F5A95A9F780959095BC01CD01D0
:062D50000895F894FFCF86
:102D5600532000300030300048002000204420205E
:102D6600202020202020004F20202020202020204E
:102D76000043202020202020202000FF0510111FC6
:102D86001E1D1C1B1A191831323341343536423791
:102D96003839432A30234408090A0B0C0D0E0F005C
:00000001FF
