:100000000C942A000C9447000C9447000C94470071
:100010000C9447000C9447000C9447000C94470044
:100020000C9447000C9447000C94E3030C94AD032C
:100030000C9447000C945F020C9447000C9447000A
:100040000C9447000C9447000C9447000C94470014
:100050000C94470011241FBECFE5D8E0DEBFCDBF12
:1000600010E0A0E6B0E0E0E1F1E302C005900D92FF
:10007000A43BB107D9F713E0A4EBB0E001C01D9297
:10008000AB3FB107E1F70E947C160C9486180C94E4
:100090000000DF93CF9300D000D000D0CDB7DEB703
:1000A0009B838A836C835E834D8381E08983809107
:1000B000B4009091B5008436910508F058C02091A5
:1000C000B4003091B500C901880F991F880F991F9E
:1000D000880F991F821B930BFC01E754FF4F8A8105
:1000E0009B81918380832091B4003091B500C90138
:1000F000880F991F880F991F880F991F821B930BD8
:10010000FC01E854FF4F8C8180832091B400309132
:10011000B500C901880F991F880F991F880F991F73
:10012000821B930BFC01E554FF4F8A819B819183D5
:1001300080832091B4003091B500C901880F991FC8
:10014000880F991F880F991F821B930BFC01EA549B
:10015000FF4F8D819E81918380838091B400909127
:10016000B50001969093B5008093B40019828981FF
:1001700026960FB6F894DEBF0FBECDBFCF91DF91AC
:100180000895DF93CF93CDB7DEB727970FB6F894D6
:10019000DEBF0FBECDBF9A8389833FC029813A81DC
:1001A00089819A81AC014F5F5F4FC901880F991F08
:1001B000880F991F880F991F821B930B9C012A544B
:1001C0003F4FCA01880F991F880F991F880F991FE9
:1001D000841B950B8A549F4F3C832B839E838D8376
:1001E00087E08F83ED81FE8100808D819E81019665
:1001F0009E838D83EB81FC8100828B819C810196A3
:100200009C838B839F8191509F83EF81EE2351F7D5
:1002100089819A8101969A8389838091B400909113
:10022000B5009C012150304089819A818217930743
:1002300008F4B4CF8091B4009091B50001979093E9
:10024000B5008093B40027960FB6F894DEBF0FBEBA
:10025000CDBFCF91DF910895DF93CF9300D0CDB77D
:10026000DEB71A8219828AC029813A81C901880FB2
:10027000991F880F991F880F991F821B930BFC01F0
:10028000E754FF4F80819181009709F051C0298187
:100290003A81C901880F991F880F991F880F991FEC
:1002A000821B930BFC01EA54FF4F0190F081E02D7B
:1002B000099529813A81C901880F991F880F991FD3
:1002C000880F991F821B930BFC01E854FF4F80811C
:1002D000813071F489819A810E94C10089819A815B
:1002E000009731F189819A8101979A83898320C08F
:1002F00049815A8129813A81C901880F991F880F44
:10030000991F880F991F821B930BFC01E554FF4F27
:1003100020813181CA01880F991F880F991F880F8A
:10032000991F841B950BFC01E754FF4F31832083F9
:1003300029813A81C901880F991F880F991F880F59
:10034000991F821B930BFC01E754FF4F8081918121
:10035000AC0141505040C901880F991F880F991F67
:10036000880F991F821B930BFC01E754FF4F5183A9
:10037000408389819A8101969A8389832091B40070
:100380003091B50089819A818217930708F46CCF68
:100390000F900F90CF91DF910895DF93CF93CDB75A
:1003A000DEB70E94970288EF0E9464038CE291E01E
:1003B0000E9473030E94AD0285E00E94E902CF9182
:1003C000DF910895DF93CF930F92CDB7DEB71982F7
:1003D000EBE2F0E080818D7F8083EBE2F0E08081D2
:1003E0008D7F8083EAE2F0E0808180618083EAE2B1
:1003F000F0E0808188608083EAE2F0E080818B7F9A
:10040000808389818068898389818F7B89838981C1
:100410008F7D898389818F7E89838981877F898385
:1004200089818460898389818260898389818E7FC3
:100430008983E0E4F0E089818083E0E4F0E01082E9
:10044000E9E2F0E083E38083EAE2F0E08081806823
:10045000808380E00F90CF91DF910895DF93CF9359
:1004600000D0CDB7DEB79A83898380917203E9818A
:10047000FA8180831092720380E00F900F90CF91E9
:10048000DF910895DF93CF9300D00F92CDB7DEB701
:100490009B838A8319828A819B81009739F08A81A4
:1004A0009B819093F8038093F70302C082E08983D5
:1004B00089810F900F900F90CF91DF9108951F9237
:1004C0000F920FB60F9211242F933F934F935F9388
:1004D0006F937F938F939F93AF93BF93EF93FF930C
:1004E000DF93CF93CDB7DEB7ECE2F0E0808180936D
:1004F00072038091F7039091F803009729F0E0913F
:10050000F703F091F8030995CF91DF91FF91EF91F7
:10051000BF91AF919F918F917F916F915F914F911B
:100520003F912F910F900FBE0F901F901895DF9362
:10053000CF93CDB7DEB7A3E5B0E0E3E5F0E080818F
:1005400087788C93A3E5B0E0E3E5F0E08081877BDA
:100550008C9380E0CF91DF910895DF93CF93CDB757
:10056000DEB7A9E5B0E0E9E5F0E0808181608C9339
:1005700080E0CF91DF910895DF93CF93CDB7DEB7C1
:10058000A9E5B0E0E9E5F0E0808182608C9380E04D
:10059000CF91DF910895DF93CF93CDB7DEB7A9E573
:1005A000B0E0E9E5F0E080818E7F8C9380E0CF9130
:1005B000DF910895DF93CF93CDB7DEB7A9E5B0E023
:1005C000E9E5F0E080818D7F8C9380E0CF91DF9131
:1005D0000895DF93CF9300D000D0CDB7DEB78A83E4
:1005E0001982A3E5B0E0E3E5F0E08081887F8C9399
:1005F0008A81282F30E03C832B838B819C81833040
:10060000910559F12B813C81243031055CF48B81BB
:100610009C818130910589F02B813C81223031050C
:10062000A1F033C08B819C8184309105F1F02B8146
:100630003C812530310509F128C0A3E5B0E0E3E5B0
:10064000F0E0808181608C9322C0A3E5B0E0E3E517
:10065000F0E0808182608C931AC0A3E5B0E0E3E50E
:10066000F0E0808183608C9312C0A3E5B0E0E3E505
:10067000F0E0808184708C930AC0A3E5B0E0E3E5EC
:10068000F0E0808185608C9302C081E0898389815C
:100690000F900F900F900F90CF91DF910895DF93FF
:1006A000CF93CDB7DEB7A3E5B0E0E3E5F0E080811E
:1006B00087788C93A3E5B0E0E3E5F0E080818C934C
:1006C00080E0CF91DF910895DF93CF930F92CDB764
:1006D000DEB78983E2E5F0E08981808380E00F90D6
:1006E000CF91DF910895DF93CF9300D00F92CDB7D4
:1006F000DEB79B838A8319828A819B81009739F0B8
:100700008A819B81909374038093730302C082E07B
:10071000898389810F900F900F90CF91DF91089579
:10072000DF93CF9300D00F92CDB7DEB79B838A8340
:1007300019828A819B81009739F08A819B819093ED
:1007400076038093750302C082E0898389810F90CC
:100750000F900F90CF91DF9108951F920F920FB6D7
:100760000F9211242F933F934F935F936F937F9337
:100770008F939F93AF93BF93EF93FF93DF93CF93A9
:10078000CDB7DEB78091730390917403009741F069
:1007900088EF0E946403E0917303F091740309955C
:1007A000CF91DF91FF91EF91BF91AF919F918F9189
:1007B0007F916F915F914F913F912F910F900FBE5D
:1007C0000F901F9018951F920F920FB60F92112441
:1007D0002F933F934F935F936F937F938F939F9349
:1007E000AF93BF93EF93FF93DF93CF93CDB7DEB774
:1007F0008091750390917603009729F0E09175033D
:10080000F09176030995CF91DF91FF91EF91BF9120
:10081000AF919F918F917F916F915F914F913F9198
:100820002F910F900FBE0F901F901895DF93CF93CD
:10083000CDB7DEB7EBE3F0E01082E8E3F0E080EF65
:100840008083E5E3F0E01082E2E3F0E01082EAE387
:10085000F0E08FEF8083E7E3F0E08FE08083E4E374
:10086000F0E08FEF8083E1E3F0E08FEF8083CF91C2
:10087000DF910895DF93CF93CDB7DEB72E970FB6F4
:10088000F894DEBF0FBECDBF8B836C838B818695C2
:10089000869586958A838B81877089838A81282FA4
:1008A00030E03E872D878D859E858130910509F446
:1008B000D6C02D853E85223031052CF48D859E8550
:1008C000009771F008C32D853E852230310509F46B
:1008D00085C18D859E858330910509F43EC2FBC29A
:1008E0008C81282F30E03C872B878B859C8582303C
:1008F000910509F43FC02B853C852330310534F444
:100900008B859C858130910571F0E5C22B853C85F6
:100910002330310509F454C08B859C8584309105C2
:1009200009F476C0D8C2ABE3B0E0EBE3F0E080813D
:10093000482F8981282F30E081E090E002C0880FA5
:10094000991F2A95E2F7809584238C93AAE3B0E05F
:10095000EAE3F0E08081482F8981282F30E081E0B0
:1009600090E0022E02C0880F991F0A94E2F7842BB0
:100970008C93B1C2ABE3B0E0EBE3F0E08081482FB1
:100980008981282F30E081E090E002C0880F991F14
:100990002A95E2F7842B8C93AAE3B0E0EAE3F0E037
:1009A0008081482F8981282F30E081E090E0022E5D
:1009B00002C0880F991F0A94E2F7842B8C938BC294
:1009C000ABE3B0E0EBE3F0E08081482F8981282F92
:1009D00030E081E090E002C0880F991F2A95E2F78D
:1009E000809584238C93AAE3B0E0EAE3F0E0808171
:1009F000482F8981282F30E081E090E0022E02C04C
:100A0000880F991F0A94E2F7809584238C9363C220
:100A1000ABE3B0E0EBE3F0E08081482F8981282F41
:100A200030E081E090E002C0880F991F2A95E2F73C
:100A3000842B8C93AAE3B0E0EAE3F0E08081482FB6
:100A40008981282F30E081E090E0022E02C0880FDB
:100A5000991F0A94E2F7809584238C933CC28C8181
:100A6000282F30E03A87298789859A858230910539
:100A700009F43FC029853A852330310534F489854E
:100A80009A858130910571F026C229853A852330F7
:100A9000310509F454C089859A858430910509F49B
:100AA00076C019C2ABE3B0E0EBE3F0E08081482F01
:100AB0008981282F30E081E090E002C0880F991FE3
:100AC0002A95E2F7809584238C93AAE3B0E0EAE3C9
:100AD000F0E08081482F8981282F30E081E090E08C
:100AE000022E02C0880F991F0A94E2F7842B8C9380
:100AF000F2C1ABE3B0E0EBE3F0E08081482F898105
:100B0000282F30E081E090E002C0880F991F2A95DD
:100B1000E2F7842B8C93AAE3B0E0EAE3F0E0808173
:100B2000482F8981282F30E081E090E0022E02C01A
:100B3000880F991F0A94E2F7842B8C93CCC1ABE306
:100B4000B0E0EBE3F0E08081482F8981282F30E08E
:100B500081E090E002C0880F991F2A95E2F7809506
:100B600084238C93AAE3B0E0EAE3F0E08081482F8D
:100B70008981282F30E081E090E0022E02C0880FAA
:100B8000991F0A94E2F7809584238C93A4C1ABE368
:100B9000B0E0EBE3F0E08081482F8981282F30E03E
:100BA00081E090E002C0880F991F2A95E2F7842B1C
:100BB0008C93AAE3B0E0EAE3F0E08081482F8981DA
:100BC000282F30E081E090E0022E02C0880F991FAC
:100BD0000A94E2F7809584238C937DC18C81282F21
:100BE00030E038872F838F8198858230910509F412
:100BF0003FC02F8138852330310534F48F819885AB
:100C00008130910571F067C12F813885233031051E
:100C100009F454C08F8198858430910509F476C019
:100C20005AC1ABE3B0E0EBE3F0E08081482F89816B
:100C3000282F30E081E090E002C0880F991F2A95AC
:100C4000E2F7809584238C93AAE3B0E0EAE3F0E036
:100C50008081482F8981282F30E081E090E0022EAA
:100C600002C0880F991F0A94E2F7842B8C9333C13A
:100C7000ABE3B0E0EBE3F0E08081482F8981282FDF
:100C800030E081E090E002C0880F991F2A95E2F7DA
:100C9000842B8C93AAE3B0E0EAE3F0E08081482F54
:100CA0008981282F30E081E090E0022E02C0880F79
:100CB000991F0A94E2F7842B8C930DC1ABE3B0E04B
:100CC000EBE3F0E08081482F8981282F30E081E03C
:100CD00090E002C0880F991F2A95E2F7809584233F
:100CE0008C93AAE3B0E0EAE3F0E08081482F8981A9
:100CF000282F30E081E090E0022E02C0880F991F7B
:100D00000A94E2F7809584238C93E5C0ABE3B0E0CE
:100D1000EBE3F0E08081482F8981282F30E081E0EB
:100D200090E002C0880F991F2A95E2F7842B8C93DC
:100D3000AAE3B0E0EAE3F0E08081482F8981282F20
:100D400030E081E090E0022E02C0880F991F0A94E3
:100D5000E2F7809584238C93BEC08C81282F30E0ED
:100D60003E832D838D819E818230910509F43FC0A1
:100D70002D813E812330310534F48D819E81813077
:100D8000910571F0A8C02D813E812330310509F411
:100D900054C08D819E818430910509F476C09BC03A
:100DA000ABE3B0E0EBE3F0E08081482F8981282FAE
:100DB00030E081E090E002C0880F991F2A95E2F7A9
:100DC000809584238C93AAE3B0E0EAE3F0E080818D
:100DD000482F8981282F30E081E090E0022E02C068
:100DE000880F991F0A94E2F7842B8C9374C0ABE3AD
:100DF000B0E0EBE3F0E08081482F8981282F30E0DC
:100E000081E090E002C0880F991F2A95E2F7842BB9
:100E10008C93AAE3B0E0EAE3F0E08081482F898177
:100E2000282F30E081E090E0022E02C0880F991F49
:100E30000A94E2F7842B8C934EC0ABE3B0E0EBE373
:100E4000F0E08081482F8981282F30E081E090E018
:100E500002C0880F991F2A95E2F7809584238C930E
:100E6000AAE3B0E0EAE3F0E08081482F8981282FEF
:100E700030E081E090E0022E02C0880F991F0A94B2
:100E8000E2F7809584238C9326C0ABE3B0E0EBE3DC
:100E9000F0E08081482F8981282F30E081E090E0C8
:100EA00002C0880F991F2A95E2F7842B8C93AAE33E
:100EB000B0E0EAE3F0E08081482F8981282F30E01C
:100EC00081E090E0022E02C0880F991F0A94E2F799
:100ED000809584238C932E960FB6F894DEBF0FBEB8
:100EE000CDBFCF91DF910895DF93CF9300D000D095
:100EF00000D0CDB7DEB78B836C838B8186958695CA
:100F000086958A838B81877089838A81282F30E038
:100F10003E832D838D819E818130910509F443C0EC
:100F20002D813E81223031052CF48D819E810097E8
:100F300071F0BCC02D813E812230310509F45FC0C3
:100F40008D819E818330910509F485C0AFC08C816D
:100F50008130A1F4AAE3B0E0EAE3F0E08081482F19
:100F60008981282F30E081E090E0022E02C0880FB6
:100F7000991F0A94E2F7842B8C9398C0AAE3B0E0FF
:100F8000EAE3F0E08081482F8981282F30E081E07A
:100F900090E0022E02C0880F991F0A94E2F7809514
:100FA00084238C9383C08C818130A1F4A7E3B0E0CB
:100FB000E7E3F0E08081482F8981282F30E081E04D
:100FC00090E0022E02C0880F991F0A94E2F7842B4A
:100FD0008C936CC0A7E3B0E0E7E3F0E08081482F9A
:100FE0008981282F30E081E090E0022E02C0880F36
:100FF000991F0A94E2F7809584238C9357C08C81C3
:101000008130A1F4A4E3B0E0E4E3F0E08081482F74
:101010008981282F30E081E090E0022E02C0880F05
:10102000991F0A94E2F7842B8C9340C0A4E3B0E0AC
:10103000E4E3F0E08081482F8981282F30E081E0CF
:1010400090E0022E02C0880F991F0A94E2F7809563
:1010500084238C932BC08C818130A1F4A1E3B0E078
:10106000E1E3F0E08081482F8981282F30E081E0A2
:1010700090E0022E02C0880F991F0A94E2F7842B99
:101080008C9314C0A1E3B0E0E1E3F0E08081482F4D
:101090008981282F30E081E090E0022E02C0880F85
:1010A000991F0A94E2F7809584238C9326960FB6B5
:1010B000F894DEBF0FBECDBFCF91DF910895DF93CF
:1010C000CF9300D000D000D0CDB7DEB78B836C8338
:1010D0008B818695869586958A838B818770898397
:1010E0008A81282F30E03E832D838D819E8181303F
:1010F000910509F443C02D813E81223031052CF445
:101100008D819E81009771F0BCC02D813E8122307F
:10111000310509F45FC08D819E818330910509F40A
:1011200085C0AFC08C818130A1F4ABE3B0E0EBE3CC
:10113000F0E08081482F8981282F30E081E090E025
:10114000022E02C0880F991F0A94E2F7842B8C9319
:1011500098C0ABE3B0E0EBE3F0E08081482F8981F9
:10116000282F30E081E090E0022E02C0880F991F06
:101170000A94E2F7809584238C9383C08C8181301C
:10118000A1F4A8E3B0E0E8E3F0E08081482F898192
:10119000282F30E081E090E0022E02C0880F991FD6
:1011A0000A94E2F7842B8C936CC0A8E3B0E0E8E3E8
:1011B000F0E08081482F8981282F30E081E090E0A5
:1011C000022E02C0880F991F0A94E2F780958423AB
:1011D0008C9357C08C818130A1F4A5E3B0E0E5E3A6
:1011E000F0E08081482F8981282F30E081E090E075
:1011F000022E02C0880F991F0A94E2F7842B8C9369
:1012000040C0A5E3B0E0E5E3F0E08081482F8981AC
:10121000282F30E081E090E0022E02C0880F991F55
:101220000A94E2F7809584238C932BC08C818130C3
:10123000A1F4A2E3B0E0E2E3F0E08081482F8981ED
:10124000282F30E081E090E0022E02C0880F991F25
:101250000A94E2F7842B8C9314C0A2E3B0E0E2E39B
:10126000F0E08081482F8981282F30E081E090E0F4
:10127000022E02C0880F991F0A94E2F780958423FA
:101280008C9326960FB6F894DEBF0FBECDBFCF91DC
:10129000DF910895DF93CF9300D000D000D0CDB779
:1012A000DEB78C838C818695869586958A838C8122
:1012B000877089838A81282F30E03E832D834D817A
:1012C0005E814130510541F18D819E8182309105D1
:1012D00034F42D813E812115310561F052C04D81DC
:1012E0005E814230510551F18D819E81833091059F
:1012F000B9F147C0E9E3F0E08081282F30E089812F
:10130000882F90E0A90102C0559547958A95E2F78C
:10131000CA0181708B8335C0E6E3F0E08081282F1D
:1013200030E08981882F90E0A90102C0559547954A
:101330008A95E2F7CA0181708B8323C0E3E3F0E072
:101340008081282F30E08981882F90E0A90102C098
:10135000559547958A95E2F7CA0181708B8311C034
:10136000E0E3F0E08081282F30E08981882F90E051
:10137000A90102C0559547958A95E2F7CA01817087
:101380008B838B8126960FB6F894DEBF0FBECDBF40
:10139000CF91DF910895DF93CF9300D000D00F92CB
:1013A000CDB7DEB78B838B818695869586958A83AC
:1013B0008B81877089838A81282F30E03D832C833D
:1013C0008C819D818130910549F12C813D812230B4
:1013D00031052CF48C819D81009761F05AC02C81DD
:1013E0003D812230310571F18C819D8183309105E1
:1013F000E9F14FC0ABE3B0E0EBE3F0E08081482FD0
:101400008981282F30E081E090E0022E02C0880F11
:10141000991F0A94E2F784278C933BC0A8E3B0E0BD
:10142000E8E3F0E08081482F8981282F30E081E0D7
:1014300090E0022E02C0880F991F0A94E2F78427D9
:101440008C9327C0A5E3B0E0E5E3F0E08081482F6E
:101450008981282F30E081E090E0022E02C0880FC1
:10146000991F0A94E2F784278C9313C0A2E3B0E09B
:10147000E2E3F0E08081482F8981282F30E081E08D
:1014800090E0022E02C0880F991F0A94E2F7842789
:101490008C930F900F900F900F900F90CF91DF9142
:1014A0000895DF93CF930F92CDB7DEB719820E94D4
:1014B000E20182E69AE00E94420289810F90CF9178
:1014C000DF910895DF93CF93CDB7DEB78091780396
:1014D000882351F489E793E00E942E0280917803DB
:1014E0008F5F809378031CC080917803813051F422
:1014F000809178038F5F809378038AE793E00E945E
:101500002E020EC0109278038BE793E00E942E0209
:1015100010927C0389E793E00E94AA0A80937703E4
:10152000CF91DF910895DF93CF9300D00F92CDB785
:10153000DEB79B838A83198280917703EA81FB81DE
:1015400080831092770389810F900F900F90CF9135
:10155000DF910895DF93CF93CDB7DEB727970FB60E
:10156000F894DEBF0FBECDBF9F838E831D821C8289
:10157000198227C08981282F30E08E819F81FC014C
:10158000E20FF31F8081882F90E0C0979B838A83AE
:101590002C813D818A819B81820F931F9D838C8347
:1015A0008C819D819C01220F331FC901880F991FD7
:1015B000880F991F820F931F9D838C8389818F5F72
:1015C00089838981282F30E08E819F81FC01E20F81
:1015D000F31F8081882371F68C819D812AE030E0A1
:1015E000B9010E945F18CB019D838C838C819D8102
:1015F00027960FB6F894DEBF0FBECDBFCF91DF9117
:101600000895DF93CF9300D00F92CDB7DEB78983D3
:101610008981282F30E03B832A838A819B81843013
:10162000910509F455C02A813B8125303105DCF450
:101630008A819B818130910509F43BC02A813B81DD
:10164000223031052CF48A819B81009769F15DC0BD
:101650002A813B812230310589F18A819B81833047
:10166000910589F152C02A813B812730310509F467
:101670003EC08A819B81883091055CF42A813B8140
:101680002530310551F18A819B818630910551F1D8
:101690003CC02A813B812830310571F18A819B81D0
:1016A0008930910571F131C08FE161E00E945F08DE
:1016B0002CC08EE161E00E945F0827C08DE161E0EF
:1016C0000E945F0822C083E061E00E945F081DC0A5
:1016D00084E061E00E945F0818C085E061E00E943C
:1016E0005F0813C086E061E00E945F080EC087E0DB
:1016F00061E00E945F0809C088E061E00E945F0825
:1017000004C089E061E00E945F080F900F900F9085
:10171000CF91DF910895DF93CF9300D00F92CDB793
:10172000DEB789838981282F30E03B832A838A8131
:101730009B818430910509F455C02A813B81253075
:101740003105DCF48A819B818130910509F43BC02D
:101750002A813B81223031052CF48A819B810097BC
:1017600069F15DC02A813B812230310589F18A818E
:101770009B818330910589F152C02A813B812730BA
:10178000310509F43EC08A819B81883091055CF463
:101790002A813B812530310551F18A819B81863038
:1017A000910551F13CC02A813B812830310571F10E
:1017B0008A819B818930910571F131C08FE160E0B0
:1017C0000E945F082CC08EE160E00E945F0827C085
:1017D0008DE160E00E945F0822C083E060E00E942B
:1017E0005F081DC084E060E00E945F0818C085E0CB
:1017F00060E00E945F0813C086E060E00E945F081E
:101800000EC087E060E00E945F0809C088E060E0E9
:101810000E945F0804C089E060E00E945F080F90AA
:101820000F900F90CF91DF910895DF93CF9300D069
:101830000F92CDB7DEB789838981282F30E03B83B3
:101840002A838A819B818430910509F44FC02A81C3
:101850003B8125303105D4F48A819B81813091050B
:10186000C9F12A813B81223031052CF48A819B8188
:10187000009761F152C02A813B812230310571F11C
:101880008A819B818330910569F147C02A813B8120
:1018900027303105B9F18A819B81883091055CF44C
:1018A0002A813B812530310529F18A819B8186304F
:1018B000910521F132C02A813B812830310531F177
:1018C0008A819B818930910529F127C08FE10E948F
:1018D000CB0923C08EE10E94CB091FC08DE10E947D
:1018E000CB091BC083E00E94CB0917C084E00E9493
:1018F000CB0913C085E00E94CB090FC086E00E948F
:10190000CB090BC087E00E94CB0907C088E00E948A
:10191000CB0903C089E00E94CB090F900F900F9074
:10192000CF91DF910895DF93CF9300D0CDB7DEB78D
:1019300083E08A8319820DC08981882F90E0FC01A1
:10194000EE56FF4F808160E00E945F0889818F5FC3
:10195000898389818A3080F32AEB3CE082E090E041
:1019600060E0A9010E9449008A810F900F90CF91F9
:10197000DF910895DF93CF93CDB7DEB780918003D9
:10198000882319F00E94500D02C00E94CA0CCF910A
:10199000DF910895DF93CF9300D00F92CDB7DEB7DC
:1019A00080917D03282F30E03B832A838A819B81AD
:1019B0008230910509F442C02A813B8123303105F0
:1019C00054F48A819B81009791F02A813B812130D8
:1019D000310531F15FC08A819B8183309105E1F14E
:1019E0002A813B812430310509F44EC053C08091D7
:1019F00081038E3179F488E360E00E94900D898341
:101A00008981882309F046C081E080937D0310928C
:101A1000810340C0809181038F5F809381033AC02E
:101A20008CE060E00E94900D89838981882391F584
:101A300082E080937D03109281032CC081E060E0FE
:101A40000E94900D89838981882321F583E080930A
:101A50007D03109281031EC080918103813071F457
:101A600086E060E00E94900D89838981882391F44B
:101A700084E080937D03109281030CC080918103E8
:101A80008F5F8093810306C085E080937D0381E0B2
:101A9000809380030F900F900F90CF91DF91089566
:101AA000DF93CF930F92CDB7DEB780917E03813065
:101AB00021F580917F03882F90E0FC01ED57FC4FCA
:101AC00080818823A9F080917F03882F90E0FC011A
:101AD000ED57FC4F808161E00E94900D89838981E0
:101AE0008823D1F480917F038F5F80937F0314C09C
:101AF00010927F0310927E030FC080917E0382308C
:101B000059F48091830360E00E94900D898389815C
:101B1000882311F410927E030F90CF91DF910895E6
:101B2000DF93CF9300D00F92CDB7DEB78A836B835C
:101B3000198280918203882309F0B4C08B818823A5
:101B400031F48091920060E00E945F0805C08091AE
:101B5000920061E00E945F088091930061E00E9422
:101B60005F088A81882334F48091940061E00E94A8
:101B70005F0805C08091940060E00E945F088A8140
:101B80008295869586958370882F90E081709070FD
:101B9000882331F08091950061E00E945F0805C0C4
:101BA0008091950060E00E945F088A818295869509
:101BB0008770882F90E081709070882331F0809139
:101BC000960061E00E945F0805C08091960060E089
:101BD0000E945F088A8182958F70882F90E08170C3
:101BE0009070882331F08091970061E00E945F0837
:101BF00005C08091970060E00E945F088A81869509
:101C000086958695882F90E081709070882331F0BA
:101C10008091980061E00E945F0805C08091980063
:101C200060E00E945F088A8186958695882F90E003
:101C300081709070882331F08091990061E00E945A
:101C40005F0805C08091990060E00E945F088A816A
:101C50008695882F90E081709070882331F0809174
:101C60009A0061E00E945F0805C080919A0060E0E0
:101C70000E945F088A81882F90E08170907088238D
:101C800031F080919B0061E00E945F0805C0809167
:101C90009B0060E00E945F0881E08093820383E004
:101CA000898318C080918203813069F48091930008
:101CB00060E00E945F0884E08983809182038F5FE7
:101CC0008093820307C080918203823019F41092BE
:101CD0008203198289810F900F900F90CF91DF912D
:101CE0000895DF93CF930F92CDB7DEB783E089835A
:101CF00080918003882371F080917E03882339F4DA
:101D000082E080937E0381E08093830305C084E0BA
:101D1000898302C081E0898389810F90CF91DF910F
:101D20000895DF93CF9300D000D0CDB7DEB79C836A
:101D30008B8383E08A83198280918003882391F1C9
:101D400080917E03882359F581E080937E03198278
:101D500013C08981482F50E08981282F30E08B8182
:101D60009C81FC01E20FF31F8081FA01ED57FC4FCB
:101D7000808389818F5F89838981282F30E08B81DF
:101D80009C81FC01E20FF31F8081882311F7898178
:101D9000882F90E0FC01ED57FC4F108205C084E0D5
:101DA0008A8302C081E08A838A810F900F900F900E
:101DB0000F90CF91DF910895DF93CF9300D00F92D2
:101DC000CDB7DEB78A836B8383E089838A818230D3
:101DD00038F58B81803120F5809180038823E9F0EC
:101DE00080917E038823B1F482E080937E038A8110
:101DF000882F90E0029600249695879507949695F3
:101E000087950794982F802D982F8B81890F809329
:101E1000830308C084E0898305C081E0898302C010
:101E200082E0898389810F900F900F90CF91DF918D
:101E30000895DF93CF9300D0CDB7DEB71A82198211
:101E400052C08981882F90E0FC01E455FF4F8081CA
:101E500061E00E945F088981282F30E0C901880F66
:101E6000991F820F931F880F991F880F991FFC01DC
:101E7000E955FC4F81E080838981282F30E0C9013A
:101E8000880F991F820F931F0196880F991F880F43
:101E9000991FFC01EA55FC4F81E080838981282F3E
:101EA00030E0C901880F991F820F931F880F991F77
:101EB000880F991FFC01E355FC4F81E080838981E5
:101EC000282F30E0C901880F991F820F931F880FB8
:101ED000991F880F991FFC01E055FC4F81E080831A
:101EE00089818F5F89838981843008F4AACF8A81B0
:101EF000882379F42FE83FE08AE090E060E0A901D0
:101F00000E9449008A838A81882319F481E08093A2
:101F1000A4038A810F900F90CF91DF910895DF93F2
:101F2000CF9300D000D0CDB7DEB78091A403882333
:101F300009F479C41A8219824DC41A828091AC00C6
:101F400061E00E945F088091AD0061E00E945F083F
:101F50008091AE0061E00E945F088091AF0061E077
:101F60000E945F088981882F90E083709070FC0147
:101F7000E455FF4F808160E00E945F088981882FCF
:101F800090E0019624E030E0B9010E947318FC0152
:101F9000E455FF4F808161E00E945F088981882FAE
:101FA00090E0029624E030E0B9010E947318FC0131
:101FB000E455FF4F808161E00E945F088981882F8E
:101FC00090E0039624E030E0B9010E947318FC0110
:101FD000E455FF4F808161E00E945F088091B0006E
:101FE0000E944A09982F8A81892B8A838091B100A7
:101FF0000E944A09882F90E0880F991F982F8A81A4
:10200000892B8A838091B2000E944A09882F90E030
:10201000880F991F880F991F982F8A81892B8A838F
:102020008091B3000E944A09882F90E0880F991F81
:10203000880F991F880F991F982F8A81892B8A836F
:102040008A818F3009F4C3C38A81282F30E03C8312
:102050002B838B819C818B30910509F4EBC12B8103
:102060003C812C3031053CF48B819C81873091057B
:1020700009F4C7C2B3C32B813C812D30310509F46B
:10208000F1C08B819C818E30910509F0A7C38981B5
:10209000282F30E0C901880F991F820F931F880FE6
:1020A000991F880F991FFC01EA55FC4F1082898106
:1020B000282F30E0C901880F991F820F931F880FC6
:1020C000991F880F991FFC01EA55FC4F40818981B7
:1020D000282F30E0C901880F991F820F931F880FA6
:1020E000991F880F991FFC01E955FC4F8081481703
:1020F00009F053C08981282F30E0C901880F991F4A
:10210000820F931F880F991F0196880F991FFC015A
:10211000EA55FC4F8081482F4F5FC901880F991FF6
:10212000820F931F880F991F0196880F991FFC013A
:10213000EA55FC4F40838981282F30E0C901880F80
:10214000991F820F931F880F991F0196880F991F5F
:10215000FC01EA55FC4F8081853081F58981882F0B
:1021600090E0880F991F880F991FFC01E456FF4FDC
:10217000808180938A008981282F30E0C901880FEF
:10218000991F820F931F880F991F0196880F991F1F
:10219000FC01EA55FC4F108211C08981282F30E0E4
:1021A000C901880F991F820F931F880F991F0196ED
:1021B000880F991FFC01EA55FC4F10828981482F36
:1021C00050E08981282F30E0C901880F991F820FC4
:1021D000931F880F991F880F991FFC01EA55FC4F28
:1021E0002081CA01880F991F840F951F880F991F9E
:1021F000880F991FFC01E955FC4F20838981282F06
:1022000030E0C901880F991F820F931F880F991F13
:10221000880F991FFC01E755FC4F81E0808389817D
:10222000282F30E0C901880F991F820F931F880F54
:10223000991F880F991FFC01E455FC4F81E08083B2
:102240008981282F30E0C901880F991F820F931FC1
:10225000880F991F880F991FFC01E155FC4F81E001
:102260008083BCC28981282F30E0C901880F991F63
:10227000820F931F880F991F880F991FFC01E75544
:10228000FC4F10828981282F30E0C901880F991FE7
:10229000820F931F880F991F880F991FFC01E75524
:1022A000FC4F40818981282F30E0C901880F991F98
:1022B000820F931F0196880F991F880F991FFC01A9
:1022C000EA55FC4F8081481709F04FC08981282FBB
:1022D00030E0C901880F991F820F931F880F991F43
:1022E000880F991FFC01E555FC4F8081482F4F5FF7
:1022F000C901880F991F820F931F880F991F880F9C
:10230000991FFC01E555FC4F40838981282F30E05F
:10231000C901880F991F820F931F880F991F880F7B
:10232000991FFC01E555FC4F8081853071F589814D
:10233000882F90E0880F991F880F991FFC01E356A2
:10234000FF4F808180938A008981282F30E0C90166
:10235000880F991F820F931F880F991F880F991F4D
:10236000FC01E555FC4F108210C08981282F30E018
:10237000C901880F991F820F931F880F991F880F1B
:10238000991FFC01E555FC4F10828981482F50E0D0
:102390008981282F30E0C901880F991F820F931F70
:1023A000880F991F880F991FFC01E755FC4F20816A
:1023B000CA01880F991F840F951F0196880F991FD6
:1023C000880F991FFC01EA55FC4F20838981282F33
:1023D00030E0C901880F991F820F931F880F991F42
:1023E000880F991FFC01EA55FC4F81E080838981A9
:1023F000282F30E0C901880F991F820F931F880F83
:10240000991F880F991FFC01E455FC4F81E08083E0
:102410008981282F30E0C901880F991F820F931FEF
:10242000880F991F880F991FFC01E155FC4F81E02F
:102430008083D4C18981282F30E0C901880F991F7A
:10244000820F931F880F991F880F991FFC01E45575
:10245000FC4F10828981282F30E0C901880F991F15
:10246000820F931F880F991F880F991FFC01E45555
:10247000FC4F40818981282F30E0C901880F991FC6
:10248000820F931F880F991F880F991FFC01E35536
:10249000FC4F8081481709F050C08981282F30E017
:1024A000C901880F991F820F931F880F991F880FEA
:1024B000991FFC01E255FC4F8081482F4F5FC901F5
:1024C000880F991F820F931F880F991F880F991FDC
:1024D000FC01E255FC4F40838981282F30E0C9017F
:1024E000880F991F820F931F880F991F880F991FBC
:1024F000FC01E255FC4F8081853079F58981882F78
:1025000090E0880F991F0196880F991FFC01E456EF
:10251000FF4F808180938A008981282F30E0C90194
:10252000880F991F820F931F880F991F880F991F7B
:10253000FC01E255FC4F108210C08981282F30E049
:10254000C901880F991F820F931F880F991F880F49
:10255000991FFC01E255FC4F10828981482F50E001
:102560008981282F30E0C901880F991F820F931F9E
:10257000880F991F880F991FFC01E455FC4F20819B
:10258000CA01880F991F840F951F880F991F880F04
:10259000991FFC01E355FC4F20838981282F30E0EF
:1025A000C901880F991F820F931F880F991F880FE9
:1025B000991FFC01E755FC4F81E080838981282F1A
:1025C00030E0C901880F991F820F931F880F991F50
:1025D000880F991FFC01EA55FC4F81E080838981B7
:1025E000282F30E0C901880F991F820F931F880F91
:1025F000991F880F991FFC01E155FC4F81E08083F2
:10260000EDC08981282F30E0C901880F991F820F02
:10261000931F880F991F880F991FFC01E155FC4FEC
:1026200010828981282F30E0C901880F991F820FFD
:10263000931F880F991F880F991FFC01E155FC4FCC
:1026400040818981282F30E0C901880F991F820FAE
:10265000931F880F991F880F991FFC01E055FC4FAD
:102660008081481709F04FC08981282F30E0C901C7
:10267000880F991F820F931F880F991F880F991F2A
:10268000FC01EF54FC4F8081482F4F5FC901880F38
:10269000991F820F931F880F991F880F991FFC01A4
:1026A000EF54FC4F40838981282F30E0C901880F07
:1026B000991F820F931F880F991F880F991FFC0184
:1026C000EF54FC4F8081853071F58981882F90E02F
:1026D000880F991F880F991FFC01E156FF4F8081D9
:1026E00080938A008981282F30E0C901880F991FC3
:1026F000820F931F880F991F880F991FFC01EF54B9
:10270000FC4F108210C08981282F30E0C901880F4A
:10271000991F820F931F880F991F880F991FFC0123
:10272000EF54FC4F10828981482F50E08981282F77
:1027300030E0C901880F991F820F931F880F991FDE
:10274000880F991FFC01E155FC4F2081CA01880FB9
:10275000991F840F951F880F991F880F991FFC01DF
:10276000E055FC4F20838981282F30E0C901880F74
:10277000991F820F931F880F991F880F991FFC01C3
:10278000E755FC4F81E080838981282F30E0C90123
:10279000880F991F820F931F880F991F880F991F09
:1027A000FC01E455FC4F81E080838981282F30E0D3
:1027B000C901880F991F820F931F880F991F880FD7
:1027C000991FFC01EA55FC4F81E0808307C0898195
:1027D0008F5F89838981843008F4AFCB898184300D
:1027E00071F48091A5038F5F8093A5038091A50369
:1027F000853029F41092A5038FEF80938A00809191
:10280000AC0061E00E945F088091AD0061E00E9431
:102810005F088091AE0061E00E945F088091AF0088
:1028200061E00E945F080F900F900F900F90CF9182
:10283000DF910895DF93CF9300D00F92CDB7DEB72D
:102840009B838A8319828091A403882331F080912D
:102850008A00EA81FB81808302C081E089838981CB
:102860000F900F900F90CF91DF910895DF93CF934A
:1028700000D00F92CDB7DEB79B838A8319828A81FD
:102880009B81009759F08091D603EA81FB81808378
:102890008091D703EA81FB81818302C082E0898332
:1028A00089810F900F900F90CF91DF910895DF9362
:1028B000CF9300D00F92CDB7DEB79B838A83198266
:1028C0008A819B81009759F0EA81FB818081809306
:1028D000D603EA81FB8181818093D70302C082E025
:1028E000898389810F900F900F90CF91DF91089588
:1028F000DF93CF9300D000D0CDB7DEB78A831982A3
:102900008A81282F30E03C832B838B819C8182300D
:102910009105C1F12B813C812330310554F48B8129
:102920009C81009789F02B813C8121303105B1F0E9
:1029300039C08B819C8183309105D1F02B813C8102
:102940002430310561F12EC080918B00843B60F50D
:1029500080918B008F5F80938B0026C080918B00CD
:10296000882311F180918B00815080938B001CC0D3
:1029700080918B00853BC0F480918B00865F8093B3
:102980008B0012C080918B008B3030F080918B00D7
:102990008A5080938B0008C010928B0005C0109263
:1029A0008B0002C081E0898389810F900F900F9086
:1029B0000F90CF91DF910895DF93CF9300D00F92C6
:1029C000CDB7DEB79B838A8319828A819B8100976A
:1029D00019F481E0898305C080918B00EA81FB8135
:1029E000808389810F900F900F90CF91DF91089590
:1029F000DF93CF93CDB7DEB72FE035E18CE390E0E6
:102A000060E0A9010E9449002CED35E184EF91E0DE
:102A100060E0A9010E944900CF91DF910895DF9302
:102A2000CF9300D0CDB7DEB78AED93E00E941A14A1
:102A30008091DA03282F30E03A83298389819A81B3
:102A40008533910509F46BC029813A81263331051C
:102A5000E4F489819A8182339105D9F129813A81FF
:102A60002333310534F489819A818133910531F121
:102A700084C029813A8123333105B1F189819A815A
:102A80008433910509F440C078C029813A81273305
:102A9000310509F45EC089819A81873391050CF470
:102AA00049C029813A812833310509F457C0898109
:102AB0009A818933910509F456C05FC080919000D6
:102AC000813009F074C080E00E9478141092900068
:102AD0006EC080918F00813009F069C081E00E9452
:102AE000781410928F0063C08091D8038F5F809319
:102AF000D8038091D803863A09F059C01092D803C0
:102B000081E00E94221653C080918E00813009F02E
:102B10004EC083E00E94781410928E0048C08091CD
:102B20008D00813009F043C082E00E947814109239
:102B30008D003DC08091D8038F5F8093D803809132
:102B4000D803863AA1F51092D80380E00E9422169D
:102B50002EC081E061E00E94351629C080E061E06E
:102B60000E94351624C080918C00813001F584E0EC
:102B70000E94781410928C001AC08FEF0E94781473
:102B800081E060E00E94351680E060E00E9435162A
:102B900081E08093900081E080938F0081E08093BA
:102BA0008E0081E080938D0081E080938C000F90F7
:102BB0000F90CF91DF910895DF93CF93CDB7DEB71C
:102BC0008BED93E00E94930A8091DB03882399F4B4
:102BD0008091D9038F5F8093D9038091D90382308C
:102BE00091F41092D90381E08093DC038BED93E0A4
:102BF0000E94571408C01092D9031092DC038BED89
:102C000093E00E945714CF91DF910895DF93CF9303
:102C100000D00F92CDB7DEB79B838A8319828A8159
:102C20009B81009719F481E0898305C08091DD03C1
:102C3000EA81FB81808389810F900F900F90CF9163
:102C4000DF910895DF93CF9300D0CDB7DEB78A83AD
:102C500019828A81882319F08A818093DD03898112
:102C60000F900F90CF91DF910895DF93CF9300D015
:102C70000F92CDB7DEB78A836B8319828B81823046
:102C800018F48A81823018F081E0898308C08A8133
:102C9000882F90E0FC01E750FC4F8B818083898175
:102CA0000F900F900F90CF91DF910895DF93CF9306
:102CB00000D000D0CDB7DEB78A837C836B831982C6
:102CC0008B819C81009719F08A81823018F081E015
:102CD00089830AC08A81882F90E0FC01E750FC4F6D
:102CE0008081EB81FC81808389810F900F900F9010
:102CF0000F90CF91DF910895DF93CF93CDB7DEB7DB
:102D0000EFE5F0E08081806880830E9416040E94D5
:102D1000CD010E94930C0E94190F0E94510A0E943B
:102D2000F8140E949416FDCFDF93CF93CDB7DEB792
:102D30008EED93E00E9406168091DE03813039F417
:102D40000E94AE160E9419170E945F1704C00E94CD
:102D5000710E8330E1F7CF91DF910895DF93CF9328
:102D6000CDB7DEB781E990E00E94DC1480E060E03E
:102D70000E94DC0E8330D1F780E690E00E94910E35
:102D80008330D1F780919100853B38F58091910097
:102D900023EE33E0B9010E94EF1780919100843651
:102DA00058F4809191008A3038F083E690E00E94D8
:102DB000910E8330D1F70AC0809191008A3030F4AF
:102DC00085E690E00E94910E8330D1F783EE93E088
:102DD0000E94910E8330D1F70CC080E062E00E9427
:102DE000DC0E8330D1F788E690E00E94910E8330AC
:102DF000D1F780919100873950F08CE690E00E94E5
:102E0000910E8330D1F781E00E94010B0FC080E06A
:102E100066E00E94DC0E8330D1F78FE690E00E94DE
:102E2000910E8330D1F781E00E948B0BCF91DF911F
:102E30000895DF93CF93CDB7DEB72FED33E080E079
:102E4000B9010E94561620EE33E081E0B9010E94DC
:102E5000561680E06FE00E94DC0E8330D1F781E7E8
:102E600090E00E94910E8330D1F78091DF03813092
:102E700021F08091E003813081F481E06FE00E94D5
:102E8000DC0E8330D1F783E790E00E94910E83300F
:102E9000D1F780E00E94010B0FC081E06FE00E943B
:102EA000DC0E8330D1F785E790E00E94910E8330ED
:102EB000D1F780E00E948B0BCF91DF910895DF93D3
:102EC000CF93CDB7DEB781EE93E00E94361481E058
:102ED00060E00E94DC0E8330D1F787E790E00E942B
:102EE000910E8330D1F78091E103863428F58091EB
:102EF000E203882309F58091E1032DEE33E0B90167
:102F00000E94EF178091E1038A3030F483E690E06D
:102F10000E94910E8330D1F78DEE93E00E94910EC6
:102F20008330D1F78AE790E00E94910E8330D1F789
:102F300082E00E948B0B50C08091E103863448F1FF
:102F40008091E103843628F58091E203882309F516
:102F50008091E1032DEE33E0B9010E94EF178091DB
:102F6000E1038A3030F483E690E00E94910E8330D2
:102F7000D1F78DEE93E00E94910E8330D1F780E877
:102F800090E00E94910E8330D1F782E00E94010B05
:102F900023C08091E103843680F081E062E00E94EA
:102FA000DC0E8330D1F784E890E00E94910E8330EC
:102FB000D1F782E00E94010B0FC081E062E00E9425
:102FC000DC0E8330D1F78AE790E00E94910E8330C7
:102FD000D1F782E00E94010BCF91DF910895DF933A
:102FE000CF93CDB7DEB72B970FB6F894DEBF0FBEE9
:102FF000CDBF89877B876A871C821B821A821982D0
:1030000089859AE0692F0E945318892F805D8B83F0
:103010008C81282F30E0CE010596FC01E20FF31FD2
:103020008B81808389859AE0692F0E945318898754
:103030008C818F5F8C838985882311F78C818150E7
:103040008A8319821AC08981282F30E08A859B855E
:10305000DC01A20FB31F8A81282F332727FD30956B
:10306000CE010596FC01E20FF31F80818C938A81CB
:1030700081508A8389818F5F898399818C81981798
:1030800010F38981282F30E08A859B85FC01E20FAF
:10309000F31F10822B960FB6F894DEBF0FBECDBF84
:1030A000CF91DF910895991B79E004C0991F96177D
:1030B00008F0961B881F7A95C9F780950895AA1B7A
:1030C000BB1B51E107C0AA1FBB1FA617B70710F013
:1030D000A61BB70B881F991F5A95A9F78095909545
:1030E000BC01CD01089597FB092E07260AD077FD74
:1030F00004D0E5DF06D000201AF4709561957F4F6B
:103100000895F6F7909581959F4F0895F894FFCF15
:1031100053200030003030002020200020480020C4
:103120000044004F004300542000202020202000B5
:1031300020204800202020204800FF050101010137
:103140000105101100010203040506073132334165
:1031500034353642373839432A30234408090A0BBC
:043160000C0D0E0F35
:00000001FF
